:020000020000FC
:080000000C9422000C945B003B
:100040000C945900882703E00DBB0DE00093690074
:1000500011E010936E0010E014BD12E015BD0FED1D
:1000600004B900E10AB907EF07B90C94370093B15E
:1000700095FD0C9447000C944C002227332700E197
:100080000BB90E9466003BB978940C94510086B17C
:10009000883099F30C944700A6B1A83009F10C946C
:1000A0004C0088950C945100F89426950C946300AC
:1000B0000895239518953030B9F70E94600018957F
:1000C00022273395089525B90C94370054E664E649
:1000D00072E37A95F1F76A95D9F75A95C1F70895C1
:0800E000E9E0E5B90C943700DA
:00000001FF
