:020000020000FC
:080000000C9422000C94610035
:100040000C945F00882703E00DBB0DE0009369006E
:1000500011E010936E0010E014BD12E015BD0FED1D
:1000600004B900EF0AB907EF07B90C94370093B150
:1000700095FD0C9447000C944D002227332700E196
:100080000BB90E946C003BB978940C94550044273E
:1000900086B1883091F30C943700C1E041E0D0E0A4
:1000A000A6B1A83019F10C94370088950C9455002E
:1000B000F8942695413029F10C9469000895239510
:1000C00018953030A9F70E946600189522273395BD
:1000D000089525B90C94370054E664E672E37A95E6
:1000E000F1F76A95D9F75A95C1F70895B0E0BBB911
:1000F000B7E086B5B823B395B5B90E9497000C94C4
:100100003D0025B9B21751F0B21701F42A3058F466
:1001100042E0D40F20E42BB90C943700D15030E8E2
:100120003BB90C94370030E23BB90C9437000F9385
:100130001F932F933F9334E622E311E401E40A95E1
:10014000F1F71A95D9F72A95C1F73A95A9F73F9192
:080150002F911F910F910895FA
:00000001FF
