:020000020000FC
:080000000C9422000C94610035
:100040000C945F00882703E00DBB0DE0009369006E
:1000500011E010936E0010E014BD12E015BD0FED1D
:1000600004B900EF0AB907EF07B90C94370093B150
:1000700095FD0C9447000C944D002227332700E196
:100080000BB90E946C003BB978940C94550044273E
:1000900086B1883091F30C943700C0E041E0D0E0A5
:1000A000A6B1A83019F10C94370088950C9455002E
:1000B000F8942695413019F10C9469000895239520
:1000C00018953030A9F70E946600189522273395BD
:1000D000089525B90C94370054E664E672E37A95E6
:1000E000F1F76A95D9F75A95C1F70895B7E086B543
:1000F000B823B395B5B90E94C3000C943D00B21368
:100100000C948D000C948400C395D395D39530E85E
:100110003BB9C63091F00C947600C3952A3038F480
:10012000D15030E43BB9C63041F00C94760030E257
:100130003BB9C63011F00C947600C0E0D03024F00A
:10014000D03054F40C94370030E43BB9D09531E012
:10015000D30FD5B90C94370020E82BB9DA3039F039
:10016000DB3049F03C3059F0D5B90C94370020E130
:1001700025B90C94370021E125B90C94370022E110
:1001800025B90C9437000F931F932F933F9334E6B8
:1001900022E311E401E40A95F1F71A95D9F72A95BB
:1001A000C1F73A95A9F73F912F911F910F910895AB
:00000001FF
